{
  "contractName": "Todo",
  "abi": [
    {
      "inputs": [
        {
          "internalType": "string",
          "name": "taskName",
          "type": "string"
        }
      ],
      "name": "addTask",
      "outputs": [],
      "stateMutability": "nonpayable",
      "type": "function"
    },
    {
      "inputs": [
        {
          "internalType": "uint256",
          "name": "_index",
          "type": "uint256"
        },
        {
          "internalType": "string",
          "name": "_name",
          "type": "string"
        }
      ],
      "name": "updateTask",
      "outputs": [],
      "stateMutability": "nonpayable",
      "type": "function"
    },
    {
      "inputs": [
        {
          "internalType": "uint256",
          "name": "_index",
          "type": "uint256"
        }
      ],
      "name": "deleteTask",
      "outputs": [],
      "stateMutability": "nonpayable",
      "type": "function"
    },
    {
      "inputs": [
        {
          "internalType": "uint256",
          "name": "_index",
          "type": "uint256"
        }
      ],
      "name": "markDoneTask",
      "outputs": [],
      "stateMutability": "nonpayable",
      "type": "function"
    },
    {
      "inputs": [],
      "name": "getAllTask",
      "outputs": [
        {
          "components": [
            {
              "internalType": "string",
              "name": "name",
              "type": "string"
            },
            {
              "internalType": "bool",
              "name": "isDone",
              "type": "bool"
            }
          ],
          "internalType": "struct Todo.TodoList[]",
          "name": "",
          "type": "tuple[]"
        }
      ],
      "stateMutability": "view",
      "type": "function"
    }
  ],
  "bytecode": "0x608060405234801561000f575f80fd5b506110518061001d5f395ff3fe608060405234801561000f575f80fd5b5060043610610055575f3560e01c80631bbaf3cf14610059578063560f3192146100775780636723856214610093578063736f1d59146100af57806386533f6c146100cb575b5f80fd5b6100616100e7565b60405161006e9190610867565b60405180910390f35b610091600480360381019061008c91906108cb565b610226565b005b6100ad60048036038101906100a89190610957565b61042d565b005b6100c960048036038101906100c491906108cb565b610527565b005b6100e560048036038101906100e09190610aca565b610608565b005b60605f803373ffffffffffffffffffffffffffffffffffffffff1673ffffffffffffffffffffffffffffffffffffffff1681526020019081526020015f20805480602002602001604051908101604052809291908181526020015f905b8282101561021d578382905f5260205f2090600202016040518060400160405290815f8201805461017490610b51565b80601f01602080910402602001604051908101604052809291908181526020018280546101a090610b51565b80156101eb5780601f106101c2576101008083540402835291602001916101eb565b820191905f5260205f20905b8154815290600101906020018083116101ce57829003601f168201915b50505050508152602001600182015f9054906101000a900460ff16151515158152505081526020019060010190610144565b50505050905090565b5f805f3373ffffffffffffffffffffffffffffffffffffffff1673ffffffffffffffffffffffffffffffffffffffff1681526020019081526020015f20805490509050808210610276575061042a565b5f8290505b6001826102889190610bae565b8110156103a3575f803373ffffffffffffffffffffffffffffffffffffffff1673ffffffffffffffffffffffffffffffffffffffff1681526020019081526020015f206001826102d89190610be1565b815481106102e9576102e8610c14565b5b905f5260205f2090600202015f803373ffffffffffffffffffffffffffffffffffffffff1673ffffffffffffffffffffffffffffffffffffffff1681526020019081526020015f20828154811061034357610342610c14565b5b905f5260205f2090600202015f8201815f0190816103619190610df3565b50600182015f9054906101000a900460ff16816001015f6101000a81548160ff021916908315150217905550905050808061039b90610ed8565b91505061027b565b505f803373ffffffffffffffffffffffffffffffffffffffff1673ffffffffffffffffffffffffffffffffffffffff1681526020019081526020015f208054806103f0576103ef610f1f565b5b600190038181905f5260205f2090600202015f8082015f6104119190610676565b600182015f6101000a81549060ff021916905550509055505b50565b5f604051806040016040528084848080601f0160208091040260200160405190810160405280939291908181526020018383808284375f81840152601f19601f8201169050808301925050505050505081526020015f151581525090505f803373ffffffffffffffffffffffffffffffffffffffff1673ffffffffffffffffffffffffffffffffffffffff1681526020019081526020015f2081908060018154018082558091505060019003905f5260205f2090600202015f909190919091505f820151815f0190816105009190610f4c565b506020820151816001015f6101000a81548160ff0219169083151502179055505050505050565b5f803373ffffffffffffffffffffffffffffffffffffffff1673ffffffffffffffffffffffffffffffffffffffff1681526020019081526020015f20818154811061057557610574610c14565b5b905f5260205f2090600202016001015f9054906101000a900460ff16155f803373ffffffffffffffffffffffffffffffffffffffff1673ffffffffffffffffffffffffffffffffffffffff1681526020019081526020015f2082815481106105e0576105df610c14565b5b905f5260205f2090600202016001015f6101000a81548160ff02191690831515021790555050565b805f803373ffffffffffffffffffffffffffffffffffffffff1673ffffffffffffffffffffffffffffffffffffffff1681526020019081526020015f20838154811061065757610656610c14565b5b905f5260205f2090600202015f0190816106719190610f4c565b505050565b50805461068290610b51565b5f825580601f1061069357506106b0565b601f0160209004905f5260205f20908101906106af91906106b3565b5b50565b5b808211156106ca575f815f9055506001016106b4565b5090565b5f81519050919050565b5f82825260208201905092915050565b5f819050602082019050919050565b5f81519050919050565b5f82825260208201905092915050565b5f5b8381101561072e578082015181840152602081019050610713565b5f8484015250505050565b5f601f19601f8301169050919050565b5f610753826106f7565b61075d8185610701565b935061076d818560208601610711565b61077681610739565b840191505092915050565b5f8115159050919050565b61079581610781565b82525050565b5f604083015f8301518482035f8601526107b58282610749565b91505060208301516107ca602086018261078c565b508091505092915050565b5f6107e0838361079b565b905092915050565b5f602082019050919050565b5f6107fe826106ce565b61080881856106d8565b93508360208202850161081a856106e8565b805f5b85811015610855578484038952815161083685826107d5565b9450610841836107e8565b925060208a0199505060018101905061081d565b50829750879550505050505092915050565b5f6020820190508181035f83015261087f81846107f4565b905092915050565b5f604051905090565b5f80fd5b5f80fd5b5f819050919050565b6108aa81610898565b81146108b4575f80fd5b50565b5f813590506108c5816108a1565b92915050565b5f602082840312156108e0576108df610890565b5b5f6108ed848285016108b7565b91505092915050565b5f80fd5b5f80fd5b5f80fd5b5f8083601f840112610917576109166108f6565b5b8235905067ffffffffffffffff811115610934576109336108fa565b5b6020830191508360018202830111156109505761094f6108fe565b5b9250929050565b5f806020838503121561096d5761096c610890565b5b5f83013567ffffffffffffffff81111561098a57610989610894565b5b61099685828601610902565b92509250509250929050565b5f80fd5b7f4e487b71000000000000000000000000000000000000000000000000000000005f52604160045260245ffd5b6109dc82610739565b810181811067ffffffffffffffff821117156109fb576109fa6109a6565b5b80604052505050565b5f610a0d610887565b9050610a1982826109d3565b919050565b5f67ffffffffffffffff821115610a3857610a376109a6565b5b610a4182610739565b9050602081019050919050565b828183375f83830152505050565b5f610a6e610a6984610a1e565b610a04565b905082815260208101848484011115610a8a57610a896109a2565b5b610a95848285610a4e565b509392505050565b5f82601f830112610ab157610ab06108f6565b5b8135610ac1848260208601610a5c565b91505092915050565b5f8060408385031215610ae057610adf610890565b5b5f610aed858286016108b7565b925050602083013567ffffffffffffffff811115610b0e57610b0d610894565b5b610b1a85828601610a9d565b9150509250929050565b7f4e487b71000000000000000000000000000000000000000000000000000000005f52602260045260245ffd5b5f6002820490506001821680610b6857607f821691505b602082108103610b7b57610b7a610b24565b5b50919050565b7f4e487b71000000000000000000000000000000000000000000000000000000005f52601160045260245ffd5b5f610bb882610898565b9150610bc383610898565b9250828203905081811115610bdb57610bda610b81565b5b92915050565b5f610beb82610898565b9150610bf683610898565b9250828201905080821115610c0e57610c0d610b81565b5b92915050565b7f4e487b71000000000000000000000000000000000000000000000000000000005f52603260045260245ffd5b5f81549050610c4f81610b51565b9050919050565b5f819050815f5260205f209050919050565b5f6020601f8301049050919050565b5f82821b905092915050565b5f60088302610cb27fffffffffffffffffffffffffffffffffffffffffffffffffffffffffffffffff82610c77565b610cbc8683610c77565b95508019841693508086168417925050509392505050565b5f819050919050565b5f610cf7610cf2610ced84610898565b610cd4565b610898565b9050919050565b5f819050919050565b610d1083610cdd565b610d24610d1c82610cfe565b848454610c83565b825550505050565b5f90565b610d38610d2c565b610d43818484610d07565b505050565b5b81811015610d6657610d5b5f82610d30565b600181019050610d49565b5050565b601f821115610dab57610d7c81610c56565b610d8584610c68565b81016020851015610d94578190505b610da8610da085610c68565b830182610d48565b50505b505050565b5f82821c905092915050565b5f610dcb5f1984600802610db0565b1980831691505092915050565b5f610de38383610dbc565b9150826002028217905092915050565b818103610e01575050610ed6565b610e0a82610c41565b67ffffffffffffffff811115610e2357610e226109a6565b5b610e2d8254610b51565b610e38828285610d6a565b5f601f831160018114610e65575f8415610e53578287015490505b610e5d8582610dd8565b865550610ecf565b601f198416610e7387610c56565b9650610e7e86610c56565b5f5b82811015610ea557848901548255600182019150600185019450602081019050610e80565b86831015610ec25784890154610ebe601f891682610dbc565b8355505b6001600288020188555050505b5050505050505b565b5f610ee282610898565b91507fffffffffffffffffffffffffffffffffffffffffffffffffffffffffffffffff8203610f1457610f13610b81565b5b600182019050919050565b7f4e487b71000000000000000000000000000000000000000000000000000000005f52603160045260245ffd5b610f55826106f7565b67ffffffffffffffff811115610f6e57610f6d6109a6565b5b610f788254610b51565b610f83828285610d6a565b5f60209050601f831160018114610fb4575f8415610fa2578287015190505b610fac8582610dd8565b865550611013565b601f198416610fc286610c56565b5f5b82811015610fe957848901518255600182019150602085019450602081019050610fc4565b868310156110065784890151611002601f891682610dbc565b8355505b6001600288020188555050505b50505050505056fea26469706673582212202188e53d29ab95632fdc7071a1d09b1db2477c842635ff0d890ea127403d125464736f6c63430008150033",
  "immutableReferences": {},
  "source": "// SPDX-License-Identifier: MIT\r\npragma solidity >=0.4.22 <0.9.0;\r\ncontract Todo {\r\n    struct TodoList{\r\n        string name;\r\n        bool isDone;\r\n    }\r\n    mapping (address=> TodoList[]) tasksList;\r\n    //we used calldata here as we are not modifing anything in this task\r\n    function addTask(string calldata taskName) public {\r\n        TodoList memory task = TodoList({name: taskName, isDone:false});\r\n        tasksList[msg.sender].push(task);\r\n    }\r\n    function updateTask(uint _index, string memory _name) public {\r\n         tasksList[msg.sender][_index].name = _name;\r\n    }\r\n    function deleteTask(uint _index) public {\r\n        uint length = tasksList[msg.sender].length;\r\n        if (_index >= length) return;\r\n        for (uint i = _index; i<length-1; i++){\r\n            tasksList[msg.sender][i] = tasksList[msg.sender][i+1];\r\n        }\r\n        tasksList[msg.sender].pop();\r\n        //delete tasksList[msg.sender][_index];\r\n    }\r\n    function markDoneTask(uint _index) public {\r\n        tasksList[msg.sender][_index].isDone = !tasksList[msg.sender][_index].isDone;\r\n    }\r\n    function getAllTask() public view returns(TodoList[] memory) {\r\n        return tasksList[msg.sender];\r\n    }\r\n }",
  "sourcePath": "D:\\1Blockchain\\Projects\\todo\\contracts\\Todo.sol",
  "compiler": {
    "name": "solc",
    "version": "0.8.21+commit.d9974bed.Emscripten.clang"
  },
  "schemaVersion": "3.4.16",
  "updatedAt": "2025-03-21T05:53:51.348Z",
  "devdoc": {
    "kind": "dev",
    "methods": {},
    "version": 1
  },
  "userdoc": {
    "kind": "user",
    "methods": {},
    "version": 1
  }
}